{
  "contractName": "Stake",
  "abi": [
    {
      "inputs": [
        {
          "internalType": "contract IERC20",
          "name": "_token",
          "type": "address"
        }
      ],
      "stateMutability": "nonpayable",
      "type": "constructor"
    },
    {
      "inputs": [
        {
          "internalType": "address",
          "name": "",
          "type": "address"
        }
      ],
      "name": "hasStaked",
      "outputs": [
        {
          "internalType": "bool",
          "name": "",
          "type": "bool"
        }
      ],
      "stateMutability": "view",
      "type": "function",
      "constant": true
    },
    {
      "inputs": [
        {
          "internalType": "address",
          "name": "",
          "type": "address"
        }
      ],
      "name": "isStaking",
      "outputs": [
        {
          "internalType": "bool",
          "name": "",
          "type": "bool"
        }
      ],
      "stateMutability": "view",
      "type": "function",
      "constant": true
    },
    {
      "inputs": [],
      "name": "name",
      "outputs": [
        {
          "internalType": "string",
          "name": "",
          "type": "string"
        }
      ],
      "stateMutability": "view",
      "type": "function",
      "constant": true
    },
    {
      "inputs": [
        {
          "internalType": "uint256",
          "name": "",
          "type": "uint256"
        }
      ],
      "name": "stakers",
      "outputs": [
        {
          "internalType": "address",
          "name": "",
          "type": "address"
        }
      ],
      "stateMutability": "view",
      "type": "function",
      "constant": true
    },
    {
      "inputs": [
        {
          "internalType": "address",
          "name": "",
          "type": "address"
        }
      ],
      "name": "stakingBalance",
      "outputs": [
        {
          "internalType": "uint256",
          "name": "",
          "type": "uint256"
        }
      ],
      "stateMutability": "view",
      "type": "function",
      "constant": true
    },
    {
      "inputs": [],
      "name": "token",
      "outputs": [
        {
          "internalType": "contract IERC20",
          "name": "",
          "type": "address"
        }
      ],
      "stateMutability": "view",
      "type": "function",
      "constant": true
    },
    {
      "inputs": [
        {
          "internalType": "uint256",
          "name": "_amount",
          "type": "uint256"
        }
      ],
      "name": "stakeTokens",
      "outputs": [],
      "stateMutability": "nonpayable",
      "type": "function"
    }
  ],
  "bytecode": "0x60806040526040518060400160405280600581526020017f5374616b650000000000000000000000000000000000000000000000000000008152506000908051906020019062000051929190620000cd565b503480156200005f57600080fd5b5060405162000c8b38038062000c8b833981810160405281019062000085919062000194565b80600160006101000a81548173ffffffffffffffffffffffffffffffffffffffff021916908373ffffffffffffffffffffffffffffffffffffffff1602179055505062000287565b828054620000db9062000208565b90600052602060002090601f016020900481019282620000ff57600085556200014b565b82601f106200011a57805160ff19168380011785556200014b565b828001600101855582156200014b579182015b828111156200014a5782518255916020019190600101906200012d565b5b5090506200015a91906200015e565b5090565b5b80821115620001795760008160009055506001016200015f565b5090565b6000815190506200018e816200026d565b92915050565b600060208284031215620001a757600080fd5b6000620001b7848285016200017d565b91505092915050565b6000620001cd82620001e8565b9050919050565b6000620001e182620001c0565b9050919050565b600073ffffffffffffffffffffffffffffffffffffffff82169050919050565b600060028204905060018216806200022157607f821691505b602082108114156200023857620002376200023e565b5b50919050565b7f4e487b7100000000000000000000000000000000000000000000000000000000600052602260045260246000fd5b6200027881620001d4565b81146200028457600080fd5b50565b6109f480620002976000396000f3fe608060405234801561001057600080fd5b506004361061009a576000357c0100000000000000000000000000000000000000000000000000000000900480637547c7a3116100785780637547c7a31461011d578063c93c8f3414610139578063fc0c546a14610169578063fd5e6dd1146101875761009a565b806306fdde031461009f57806345bc78ab146100bd5780636f49712b146100ed575b600080fd5b6100a76101b7565b6040516100b4919061078a565b60405180910390f35b6100d760048036038101906100d29190610612565b610245565b6040516100e491906107ac565b60405180910390f35b61010760048036038101906101029190610612565b61025d565b6040516101149190610754565b60405180910390f35b61013760048036038101906101329190610664565b61027d565b005b610153600480360381019061014e9190610612565b61054e565b6040516101609190610754565b60405180910390f35b61017161056e565b60405161017e919061076f565b60405180910390f35b6101a1600480360381019061019c9190610664565b610594565b6040516101ae9190610702565b60405180910390f35b600080546101c4906108d8565b80601f01602080910402602001604051908101604052809291908181526020018280546101f0906108d8565b801561023d5780601f106102125761010080835404028352916020019161023d565b820191906000526020600020905b81548152906001019060200180831161022057829003601f168201915b505050505081565b60036020528060005260406000206000915090505481565b60056020528060005260406000206000915054906101000a900460ff1681565b6000811161028a57600080fd5b600160009054906101000a900473ffffffffffffffffffffffffffffffffffffffff1673ffffffffffffffffffffffffffffffffffffffff166323b872dd3330846040518463ffffffff167c01000000000000000000000000000000000000000000000000000000000281526004016103059392919061071d565b602060405180830381600087803b15801561031f57600080fd5b505af1158015610333573d6000803e3d6000fd5b505050506040513d601f19601f82011682018060405250810190610357919061063b565b5080600360003373ffffffffffffffffffffffffffffffffffffffff1673ffffffffffffffffffffffffffffffffffffffff168152602001908152602001600020546103a391906107e3565b600360003373ffffffffffffffffffffffffffffffffffffffff1673ffffffffffffffffffffffffffffffffffffffff16815260200190815260200160002081905550600460003373ffffffffffffffffffffffffffffffffffffffff1673ffffffffffffffffffffffffffffffffffffffff16815260200190815260200160002060009054906101000a900460ff1661049b576002339080600181540180825580915050600190039060005260206000200160009091909190916101000a81548173ffffffffffffffffffffffffffffffffffffffff021916908373ffffffffffffffffffffffffffffffffffffffff1602179055505b6001600560003373ffffffffffffffffffffffffffffffffffffffff1673ffffffffffffffffffffffffffffffffffffffff16815260200190815260200160002060006101000a81548160ff0219169083151502179055506001600460003373ffffffffffffffffffffffffffffffffffffffff1673ffffffffffffffffffffffffffffffffffffffff16815260200190815260200160002060006101000a81548160ff02191690831515021790555050565b60046020528060005260406000206000915054906101000a900460ff1681565b600160009054906101000a900473ffffffffffffffffffffffffffffffffffffffff1681565b600281815481106105a457600080fd5b906000526020600020016000915054906101000a900473ffffffffffffffffffffffffffffffffffffffff1681565b6000813590506105e281610979565b92915050565b6000815190506105f781610990565b92915050565b60008135905061060c816109a7565b92915050565b60006020828403121561062457600080fd5b6000610632848285016105d3565b91505092915050565b60006020828403121561064d57600080fd5b600061065b848285016105e8565b91505092915050565b60006020828403121561067657600080fd5b6000610684848285016105fd565b91505092915050565b61069681610839565b82525050565b6106a58161084b565b82525050565b6106b481610881565b82525050565b60006106c5826107c7565b6106cf81856107d2565b93506106df8185602086016108a5565b6106e881610968565b840191505092915050565b6106fc81610877565b82525050565b6000602082019050610717600083018461068d565b92915050565b6000606082019050610732600083018661068d565b61073f602083018561068d565b61074c60408301846106f3565b949350505050565b6000602082019050610769600083018461069c565b92915050565b600060208201905061078460008301846106ab565b92915050565b600060208201905081810360008301526107a481846106ba565b905092915050565b60006020820190506107c160008301846106f3565b92915050565b600081519050919050565b600082825260208201905092915050565b60006107ee82610877565b91506107f983610877565b9250827fffffffffffffffffffffffffffffffffffffffffffffffffffffffffffffffff0382111561082e5761082d61090a565b5b828201905092915050565b600061084482610857565b9050919050565b60008115159050919050565b600073ffffffffffffffffffffffffffffffffffffffff82169050919050565b6000819050919050565b600061088c82610893565b9050919050565b600061089e82610857565b9050919050565b60005b838110156108c35780820151818401526020810190506108a8565b838111156108d2576000848401525b50505050565b600060028204905060018216806108f057607f821691505b6020821081141561090457610903610939565b5b50919050565b7f4e487b7100000000000000000000000000000000000000000000000000000000600052601160045260246000fd5b7f4e487b7100000000000000000000000000000000000000000000000000000000600052602260045260246000fd5b6000601f19601f8301169050919050565b61098281610839565b811461098d57600080fd5b50565b6109998161084b565b81146109a457600080fd5b50565b6109b081610877565b81146109bb57600080fd5b5056fea2646970667358221220a39c9154f1e6bbf8b16ca6add5634bb780f5b85ec929ae096ae546b2e212416e64736f6c63430008000033",
  "immutableReferences": {},
  "source": "pragma solidity ^0.8.0;\n\nimport \"@openzeppelin/contracts/token/ERC20/IERC20.sol\";\n\n\ncontract Stake {\n    string public name = \"Stake\";\n    IERC20 public token;\n\n    address[] public stakers;\n    mapping(address => uint) public stakingBalance;\n    mapping(address => bool) public hasStaked;\n    mapping(address => bool) public isStaking;\n\n    constructor(IERC20 _token) public {\n        token = _token;\n    }\n\n    function stakeTokens(uint _amount) public {\n\n        require(_amount > 0);\n\n        token.transferFrom(msg.sender, address(this), _amount);\n\n        stakingBalance[msg.sender] = stakingBalance[msg.sender] + _amount;\n\n        if(!hasStaked[msg.sender]) {\n            stakers.push(msg.sender);\n        }\n\n        isStaking[msg.sender] = true;\n        hasStaked[msg.sender] = true;\n    }\n\n}",
  "sourcePath": "/home/ibrahim/GitHub/Sell/contracts/Stake.sol",
  "compiler": {
    "name": "solc",
    "version": "0.8.0+commit.c7dfd78e.Emscripten.clang"
  },
  "schemaVersion": "3.2.3",
  "updatedAt": "2022-02-09T13:11:42.942Z",
  "networkType": "ethereum",
  "devdoc": {
    "kind": "dev",
    "methods": {},
    "version": 1
  },
  "userdoc": {
    "kind": "user",
    "methods": {},
    "version": 1
  }
}