{
  "contractName": "Swap",
  "abi": [
    {
      "inputs": [
        {
          "internalType": "contract IERC20",
          "name": "_token",
          "type": "address"
        },
        {
          "internalType": "uint256",
          "name": "_rate",
          "type": "uint256"
        }
      ],
      "stateMutability": "nonpayable",
      "type": "constructor"
    },
    {
      "anonymous": false,
      "inputs": [
        {
          "indexed": false,
          "internalType": "address",
          "name": "account",
          "type": "address"
        },
        {
          "indexed": false,
          "internalType": "address",
          "name": "token",
          "type": "address"
        },
        {
          "indexed": false,
          "internalType": "uint256",
          "name": "amount",
          "type": "uint256"
        },
        {
          "indexed": false,
          "internalType": "uint256",
          "name": "rate",
          "type": "uint256"
        }
      ],
      "name": "TokensPurchased",
      "type": "event"
    },
    {
      "inputs": [],
      "name": "name",
      "outputs": [
        {
          "internalType": "string",
          "name": "",
          "type": "string"
        }
      ],
      "stateMutability": "view",
      "type": "function",
      "constant": true
    },
    {
      "inputs": [],
      "name": "rate",
      "outputs": [
        {
          "internalType": "uint256",
          "name": "",
          "type": "uint256"
        }
      ],
      "stateMutability": "view",
      "type": "function",
      "constant": true
    },
    {
      "inputs": [],
      "name": "token",
      "outputs": [
        {
          "internalType": "contract IERC20",
          "name": "",
          "type": "address"
        }
      ],
      "stateMutability": "view",
      "type": "function",
      "constant": true
    },
    {
      "inputs": [
        {
          "internalType": "uint256",
          "name": "_amount",
          "type": "uint256"
        }
      ],
      "name": "buyTokens",
      "outputs": [],
      "stateMutability": "payable",
      "type": "function",
      "payable": true
    }
  ],
  "bytecode": "0x60806040526040518060400160405280600d81526020017f5377617020636f6e7472616374000000000000000000000000000000000000008152506000908051906020019062000051929190620000d5565b503480156200005f57600080fd5b5060405162000a9338038062000a938339818101604052810190620000859190620001b3565b81600160006101000a81548173ffffffffffffffffffffffffffffffffffffffff021916908373ffffffffffffffffffffffffffffffffffffffff160217905550806002819055505050620002df565b828054620000e39062000246565b90600052602060002090601f01602090048101928262000107576000855562000153565b82601f106200012257805160ff191683800117855562000153565b8280016001018555821562000153579182015b828111156200015257825182559160200191906001019062000135565b5b50905062000162919062000166565b5090565b5b808211156200018157600081600090555060010162000167565b5090565b6000815190506200019681620002ab565b92915050565b600081519050620001ad81620002c5565b92915050565b60008060408385031215620001c757600080fd5b6000620001d78582860162000185565b9250506020620001ea858286016200019c565b9150509250929050565b600062000201826200021c565b9050919050565b60006200021582620001f4565b9050919050565b600073ffffffffffffffffffffffffffffffffffffffff82169050919050565b6000819050919050565b600060028204905060018216806200025f57607f821691505b602082108114156200027657620002756200027c565b5b50919050565b7f4e487b7100000000000000000000000000000000000000000000000000000000600052602260045260246000fd5b620002b68162000208565b8114620002c257600080fd5b50565b620002d0816200023c565b8114620002dc57600080fd5b50565b6107a480620002ef6000396000f3fe60806040526004361061003f5760003560e01c806306fdde03146100445780632c4e722e1461006f5780633610724e1461009a578063fc0c546a146100b6575b600080fd5b34801561005057600080fd5b506100596100e1565b604051610066919061054d565b60405180910390f35b34801561007b57600080fd5b5061008461016f565b604051610091919061056f565b60405180910390f35b6100b460048036038101906100af91906103e3565b610175565b005b3480156100c257600080fd5b506100cb610355565b6040516100d89190610532565b60405180910390f35b600080546100ee9061069f565b80601f016020809104026020016040519081016040528092919081815260200182805461011a9061069f565b80156101675780601f1061013c57610100808354040283529160200191610167565b820191906000526020600020905b81548152906001019060200180831161014a57829003601f168201915b505050505081565b60025481565b60006002548261018591906105a6565b905080600160009054906101000a900473ffffffffffffffffffffffffffffffffffffffff1673ffffffffffffffffffffffffffffffffffffffff166370a08231306040518263ffffffff1660e01b81526004016101e3919061049b565b60206040518083038186803b1580156101fb57600080fd5b505afa15801561020f573d6000803e3d6000fd5b505050506040513d601f19601f82011682018060405250810190610233919061040c565b101561023e57600080fd5b600160009054906101000a900473ffffffffffffffffffffffffffffffffffffffff1673ffffffffffffffffffffffffffffffffffffffff166323b872dd3033846040518463ffffffff1660e01b815260040161029d939291906104b6565b602060405180830381600087803b1580156102b757600080fd5b505af11580156102cb573d6000803e3d6000fd5b505050506040513d601f19601f820116820180604052508101906102ef91906103ba565b507f6faf93231a456e552dbc9961f58d9713ee4f2e69d15f1975b050ef0911053a7b33600160009054906101000a900473ffffffffffffffffffffffffffffffffffffffff168360025460405161034994939291906104ed565b60405180910390a15050565b600160009054906101000a900473ffffffffffffffffffffffffffffffffffffffff1681565b60008151905061038a81610740565b92915050565b60008135905061039f81610757565b92915050565b6000815190506103b481610757565b92915050565b6000602082840312156103cc57600080fd5b60006103da8482850161037b565b91505092915050565b6000602082840312156103f557600080fd5b600061040384828501610390565b91505092915050565b60006020828403121561041e57600080fd5b600061042c848285016103a5565b91505092915050565b61043e81610600565b82525050565b61044d81610648565b82525050565b600061045e8261058a565b6104688185610595565b935061047881856020860161066c565b6104818161072f565b840191505092915050565b6104958161063e565b82525050565b60006020820190506104b06000830184610435565b92915050565b60006060820190506104cb6000830186610435565b6104d86020830185610435565b6104e5604083018461048c565b949350505050565b60006080820190506105026000830187610435565b61050f6020830186610435565b61051c604083018561048c565b610529606083018461048c565b95945050505050565b60006020820190506105476000830184610444565b92915050565b600060208201905081810360008301526105678184610453565b905092915050565b6000602082019050610584600083018461048c565b92915050565b600081519050919050565b600082825260208201905092915050565b60006105b18261063e565b91506105bc8361063e565b9250817fffffffffffffffffffffffffffffffffffffffffffffffffffffffffffffffff04831182151516156105f5576105f46106d1565b5b828202905092915050565b600061060b8261061e565b9050919050565b60008115159050919050565b600073ffffffffffffffffffffffffffffffffffffffff82169050919050565b6000819050919050565b60006106538261065a565b9050919050565b60006106658261061e565b9050919050565b60005b8381101561068a57808201518184015260208101905061066f565b83811115610699576000848401525b50505050565b600060028204905060018216806106b757607f821691505b602082108114156106cb576106ca610700565b5b50919050565b7f4e487b7100000000000000000000000000000000000000000000000000000000600052601160045260246000fd5b7f4e487b7100000000000000000000000000000000000000000000000000000000600052602260045260246000fd5b6000601f19601f8301169050919050565b61074981610612565b811461075457600080fd5b50565b6107608161063e565b811461076b57600080fd5b5056fea264697066735822122079b6082a2b8647abeecb361b7bb86443ab0392a9fd0821e4f0cee270e1378dc464736f6c63430008000033",
  "immutableReferences": {},
  "source": "pragma solidity ^0.8.0;\n\nimport \"@openzeppelin/contracts/token/ERC20/IERC20.sol\";\n\ncontract Swap {\n  string public name = \"Swap contract\";\n  IERC20 public token;\n  uint256 public rate;\n\n  event TokensPurchased(\n    address account,\n    address token,\n    uint amount,\n    uint rate\n  );\n\n  constructor(IERC20 _token , uint256 _rate) public {\n    token = _token;\n    rate = _rate;\n  }\n\n  // function buyTokens() public payable {\n  //   uint tokenAmount = msg.value * rate;\n\n  //   require(token.balanceOf(address(this)) >= tokenAmount);\n\n  //   token.transferFrom(address(this), msg.sender, tokenAmount);\n\n  //   emit TokensPurchased(msg.sender, address(this), tokenAmount, rate);\n  // }\n\n\n// function buyTokens() public payable {\n//     // Calculate the number of tokens to buy\n//     uint256 tokenAmount = msg.value * rate;\n\n//     // uint256 tokenAmount1 = msg.value;\n//     // uint256 tokenAmount2 = tokenAmount1 + 000000000000000000;\n//     // uint256 tokenAmount = tokenAmount2 * rate;\n\n//     // Require that EthSwap has enough tokens\n//     require(token.balanceOf(address(this)) >= tokenAmount);\n\n//     // Transfer tokens to the user\n//     token.transfer(msg.sender, tokenAmount);\n\n//     // Emit an event\n//     emit TokensPurchased(msg.sender, address(token), tokenAmount, rate);\n//   }\n\n\nfunction buyTokens(uint _amount) public payable {\n    // Calculate the number of tokens to buy\n    uint256 tokenAmount = _amount * rate;\n\n    // Require that EthSwap has enough tokens\n    require(token.balanceOf(address(this)) >= tokenAmount);\n\n    // Transfer tokens to the user\n    token.transferFrom(address(this),msg.sender, tokenAmount);\n\n    // Emit an event\n    emit TokensPurchased(msg.sender, address(token), tokenAmount, rate);\n  }\n\n\n\n}",
  "sourcePath": "/home/ibrahim/GitHub/Sell/contracts/Swap.sol",
  "compiler": {
    "name": "solc",
    "version": "0.8.0+commit.c7dfd78e.Emscripten.clang"
  },
  "schemaVersion": "3.2.3",
  "updatedAt": "2022-02-12T03:08:19.685Z",
  "networkType": "ethereum",
  "devdoc": {
    "kind": "dev",
    "methods": {},
    "version": 1
  },
  "userdoc": {
    "kind": "user",
    "methods": {},
    "version": 1
  }
}