{
  "contractName": "Swap",
  "abi": [
    {
      "inputs": [
        {
          "internalType": "contract IERC20",
          "name": "_token",
          "type": "address"
        },
        {
          "internalType": "uint256",
          "name": "_rate",
          "type": "uint256"
        }
      ],
      "stateMutability": "nonpayable",
      "type": "constructor"
    },
    {
      "anonymous": false,
      "inputs": [
        {
          "indexed": false,
          "internalType": "address",
          "name": "account",
          "type": "address"
        },
        {
          "indexed": false,
          "internalType": "address",
          "name": "token",
          "type": "address"
        },
        {
          "indexed": false,
          "internalType": "uint256",
          "name": "amount",
          "type": "uint256"
        },
        {
          "indexed": false,
          "internalType": "uint256",
          "name": "rate",
          "type": "uint256"
        }
      ],
      "name": "TokensPurchased",
      "type": "event"
    },
    {
      "inputs": [],
      "name": "name",
      "outputs": [
        {
          "internalType": "string",
          "name": "",
          "type": "string"
        }
      ],
      "stateMutability": "view",
      "type": "function"
    },
    {
      "inputs": [],
      "name": "rate",
      "outputs": [
        {
          "internalType": "uint256",
          "name": "",
          "type": "uint256"
        }
      ],
      "stateMutability": "view",
      "type": "function"
    },
    {
      "inputs": [],
      "name": "token",
      "outputs": [
        {
          "internalType": "contract IERC20",
          "name": "",
          "type": "address"
        }
      ],
      "stateMutability": "view",
      "type": "function"
    },
    {
      "inputs": [],
      "name": "buyTokens",
      "outputs": [],
      "stateMutability": "payable",
      "type": "function"
    }
  ],
  "bytecode": "0x60806040526040518060400160405280600d81526020017f5377617020636f6e7472616374000000000000000000000000000000000000008152506000908051906020019062000051929190620000d5565b503480156200005f57600080fd5b5060405162000a9738038062000a978339818101604052810190620000859190620001b3565b81600160006101000a81548173ffffffffffffffffffffffffffffffffffffffff021916908373ffffffffffffffffffffffffffffffffffffffff160217905550806002819055505050620002df565b828054620000e39062000246565b90600052602060002090601f01602090048101928262000107576000855562000153565b82601f106200012257805160ff191683800117855562000153565b8280016001018555821562000153579182015b828111156200015257825182559160200191906001019062000135565b5b50905062000162919062000166565b5090565b5b808211156200018157600081600090555060010162000167565b5090565b6000815190506200019681620002ab565b92915050565b600081519050620001ad81620002c5565b92915050565b60008060408385031215620001c757600080fd5b6000620001d78582860162000185565b9250506020620001ea858286016200019c565b9150509250929050565b600062000201826200021c565b9050919050565b60006200021582620001f4565b9050919050565b600073ffffffffffffffffffffffffffffffffffffffff82169050919050565b6000819050919050565b600060028204905060018216806200025f57607f821691505b602082108114156200027657620002756200027c565b5b50919050565b7f4e487b7100000000000000000000000000000000000000000000000000000000600052602260045260246000fd5b620002b68162000208565b8114620002c257600080fd5b50565b620002d0816200023c565b8114620002dc57600080fd5b50565b6107a880620002ef6000396000f3fe60806040526004361061005c576000357c01000000000000000000000000000000000000000000000000000000009004806306fdde03146100615780632c4e722e1461008c578063d0febe4c146100b7578063fc0c546a146100c1575b600080fd5b34801561006d57600080fd5b506100766100ec565b6040516100839190610551565b60405180910390f35b34801561009857600080fd5b506100a161017a565b6040516100ae9190610573565b60405180910390f35b6100bf610180565b005b3480156100cd57600080fd5b506100d6610397565b6040516100e39190610536565b60405180910390f35b600080546100f9906106a3565b80601f0160208091040260200160405190810160405280929190818152602001828054610125906106a3565b80156101725780601f1061014757610100808354040283529160200191610172565b820191906000526020600020905b81548152906001019060200180831161015557829003601f168201915b505050505081565b60025481565b60006002543461019091906105aa565b905080600160009054906101000a900473ffffffffffffffffffffffffffffffffffffffff1673ffffffffffffffffffffffffffffffffffffffff166370a08231306040518263ffffffff167c010000000000000000000000000000000000000000000000000000000002815260040161020a919061049f565b60206040518083038186803b15801561022257600080fd5b505afa158015610236573d6000803e3d6000fd5b505050506040513d601f19601f8201168201806040525081019061025a9190610410565b101561026557600080fd5b600160009054906101000a900473ffffffffffffffffffffffffffffffffffffffff1673ffffffffffffffffffffffffffffffffffffffff166323b872dd3033846040518463ffffffff167c01000000000000000000000000000000000000000000000000000000000281526004016102e0939291906104ba565b602060405180830381600087803b1580156102fa57600080fd5b505af115801561030e573d6000803e3d6000fd5b505050506040513d601f19601f8201168201806040525081019061033291906103e7565b507f6faf93231a456e552dbc9961f58d9713ee4f2e69d15f1975b050ef0911053a7b33600160009054906101000a900473ffffffffffffffffffffffffffffffffffffffff168360025460405161038c94939291906104f1565b60405180910390a150565b600160009054906101000a900473ffffffffffffffffffffffffffffffffffffffff1681565b6000815190506103cc81610744565b92915050565b6000815190506103e18161075b565b92915050565b6000602082840312156103f957600080fd5b6000610407848285016103bd565b91505092915050565b60006020828403121561042257600080fd5b6000610430848285016103d2565b91505092915050565b61044281610604565b82525050565b6104518161064c565b82525050565b60006104628261058e565b61046c8185610599565b935061047c818560208601610670565b61048581610733565b840191505092915050565b61049981610642565b82525050565b60006020820190506104b46000830184610439565b92915050565b60006060820190506104cf6000830186610439565b6104dc6020830185610439565b6104e96040830184610490565b949350505050565b60006080820190506105066000830187610439565b6105136020830186610439565b6105206040830185610490565b61052d6060830184610490565b95945050505050565b600060208201905061054b6000830184610448565b92915050565b6000602082019050818103600083015261056b8184610457565b905092915050565b60006020820190506105886000830184610490565b92915050565b600081519050919050565b600082825260208201905092915050565b60006105b582610642565b91506105c083610642565b9250817fffffffffffffffffffffffffffffffffffffffffffffffffffffffffffffffff04831182151516156105f9576105f86106d5565b5b828202905092915050565b600061060f82610622565b9050919050565b60008115159050919050565b600073ffffffffffffffffffffffffffffffffffffffff82169050919050565b6000819050919050565b60006106578261065e565b9050919050565b600061066982610622565b9050919050565b60005b8381101561068e578082015181840152602081019050610673565b8381111561069d576000848401525b50505050565b600060028204905060018216806106bb57607f821691505b602082108114156106cf576106ce610704565b5b50919050565b7f4e487b7100000000000000000000000000000000000000000000000000000000600052601160045260246000fd5b7f4e487b7100000000000000000000000000000000000000000000000000000000600052602260045260246000fd5b6000601f19601f8301169050919050565b61074d81610616565b811461075857600080fd5b50565b61076481610642565b811461076f57600080fd5b5056fea2646970667358221220ae463e0e3cdf41e93f844dc387e1996e85fe3556b1e1e7a9cf49c63febad550c64736f6c63430008000033",
  "immutableReferences": {},
  "source": "pragma solidity ^0.8.0;\n\nimport \"@openzeppelin/contracts/token/ERC20/IERC20.sol\";\n\ncontract Swap {\n//     string public name = \"Swap contract\";\n//     uint256 public rate;\n//     IERC20 public token;\n\n//     event TokensPurchased(\n//     address account,\n//     address token,\n//     uint amount,\n//     uint rate\n//   );\n\n//     constructor (IERC20 _token , uint256 _rate) public {\n//         token = _token;\n//         rate = _rate;\n//     }\n\n//     function buyTokens() public payable {\n//         uint256 amount = msg.value * rate;\n\n//         require(token.balanceOf(address(this))>= amount);\n\n//         token.transferFrom(msg.sender, address(this), amount);\n\n//         emit TokensPurchased(msg.sender, address(token), amount, rate);\n//     }\n\n\n\n  string public name = \"Swap contract\";\n  IERC20 public token;\n  uint256 public rate;\n\n  event TokensPurchased(\n    address account,\n    address token,\n    uint amount,\n    uint rate\n  );\n\n  constructor(IERC20 _token , uint256 _rate) public {\n    token = _token;\n    rate = _rate;\n  }\n\n  function buyTokens() public payable {\n    uint tokenAmount = msg.value * rate;\n\n    require(token.balanceOf(address(this)) >= tokenAmount);\n\n    token.transferFrom(address(this), msg.sender, tokenAmount);\n\n    emit TokensPurchased(msg.sender, address(token), tokenAmount, rate);\n  }\n\n\n}",
  "sourcePath": "/home/ibrahim/GitHub/Sell/contracts/Swap.sol",
  "compiler": {
    "name": "solc",
    "version": "0.8.0+commit.c7dfd78e.Emscripten.clang"
  },
  "schemaVersion": "3.2.3",
  "updatedAt": "2022-02-09T13:13:37.301Z",
  "devdoc": {
    "kind": "dev",
    "methods": {},
    "version": 1
  },
  "userdoc": {
    "kind": "user",
    "methods": {},
    "version": 1
  }
}