{
  "contractName": "Swap",
  "abi": [
    {
      "inputs": [
        {
          "internalType": "contract IERC20",
          "name": "_token",
          "type": "address"
        },
        {
          "internalType": "uint256",
          "name": "_rate",
          "type": "uint256"
        }
      ],
      "stateMutability": "nonpayable",
      "type": "constructor"
    },
    {
      "anonymous": false,
      "inputs": [
        {
          "indexed": false,
          "internalType": "address",
          "name": "account",
          "type": "address"
        },
        {
          "indexed": false,
          "internalType": "address",
          "name": "token",
          "type": "address"
        },
        {
          "indexed": false,
          "internalType": "uint256",
          "name": "amount",
          "type": "uint256"
        },
        {
          "indexed": false,
          "internalType": "uint256",
          "name": "rate",
          "type": "uint256"
        }
      ],
      "name": "TokensPurchased",
      "type": "event"
    },
    {
      "inputs": [],
      "name": "name",
      "outputs": [
        {
          "internalType": "string",
          "name": "",
          "type": "string"
        }
      ],
      "stateMutability": "view",
      "type": "function",
      "constant": true
    },
    {
      "inputs": [],
      "name": "rate",
      "outputs": [
        {
          "internalType": "uint256",
          "name": "",
          "type": "uint256"
        }
      ],
      "stateMutability": "view",
      "type": "function",
      "constant": true
    },
    {
      "inputs": [],
      "name": "token",
      "outputs": [
        {
          "internalType": "contract IERC20",
          "name": "",
          "type": "address"
        }
      ],
      "stateMutability": "view",
      "type": "function",
      "constant": true
    },
    {
      "inputs": [],
      "name": "buyTokens",
      "outputs": [],
      "stateMutability": "payable",
      "type": "function",
      "payable": true
    }
  ],
  "bytecode": "0x60806040526040518060400160405280600d81526020017f5377617020636f6e7472616374000000000000000000000000000000000000008152506000908051906020019062000051929190620000d5565b503480156200005f57600080fd5b5060405162000a8738038062000a878339818101604052810190620000859190620001b3565b81600160006101000a81548173ffffffffffffffffffffffffffffffffffffffff021916908373ffffffffffffffffffffffffffffffffffffffff160217905550806002819055505050620002df565b828054620000e39062000246565b90600052602060002090601f01602090048101928262000107576000855562000153565b82601f106200012257805160ff191683800117855562000153565b8280016001018555821562000153579182015b828111156200015257825182559160200191906001019062000135565b5b50905062000162919062000166565b5090565b5b808211156200018157600081600090555060010162000167565b5090565b6000815190506200019681620002ab565b92915050565b600081519050620001ad81620002c5565b92915050565b60008060408385031215620001c757600080fd5b6000620001d78582860162000185565b9250506020620001ea858286016200019c565b9150509250929050565b600062000201826200021c565b9050919050565b60006200021582620001f4565b9050919050565b600073ffffffffffffffffffffffffffffffffffffffff82169050919050565b6000819050919050565b600060028204905060018216806200025f57607f821691505b602082108114156200027657620002756200027c565b5b50919050565b7f4e487b7100000000000000000000000000000000000000000000000000000000600052602260045260246000fd5b620002b68162000208565b8114620002c257600080fd5b50565b620002d0816200023c565b8114620002dc57600080fd5b50565b61079880620002ef6000396000f3fe60806040526004361061005c576000357c01000000000000000000000000000000000000000000000000000000009004806306fdde03146100615780632c4e722e1461008c578063d0febe4c146100b7578063fc0c546a146100c1575b600080fd5b34801561006d57600080fd5b506100766100ec565b6040516100839190610541565b60405180910390f35b34801561009857600080fd5b506100a161017a565b6040516100ae9190610563565b60405180910390f35b6100bf610180565b005b3480156100cd57600080fd5b506100d6610395565b6040516100e39190610526565b60405180910390f35b600080546100f990610693565b80601f016020809104026020016040519081016040528092919081815260200182805461012590610693565b80156101725780601f1061014757610100808354040283529160200191610172565b820191906000526020600020905b81548152906001019060200180831161015557829003601f168201915b505050505081565b60025481565b600060025434610190919061059a565b905080600160009054906101000a900473ffffffffffffffffffffffffffffffffffffffff1673ffffffffffffffffffffffffffffffffffffffff166370a08231306040518263ffffffff167c010000000000000000000000000000000000000000000000000000000002815260040161020a919061049d565b60206040518083038186803b15801561022257600080fd5b505afa158015610236573d6000803e3d6000fd5b505050506040513d601f19601f8201168201806040525081019061025a919061040e565b101561026557600080fd5b600160009054906101000a900473ffffffffffffffffffffffffffffffffffffffff1673ffffffffffffffffffffffffffffffffffffffff1663a9059cbb33836040518363ffffffff167c01000000000000000000000000000000000000000000000000000000000281526004016102de9291906104fd565b602060405180830381600087803b1580156102f857600080fd5b505af115801561030c573d6000803e3d6000fd5b505050506040513d601f19601f8201168201806040525081019061033091906103e5565b507f6faf93231a456e552dbc9961f58d9713ee4f2e69d15f1975b050ef0911053a7b33600160009054906101000a900473ffffffffffffffffffffffffffffffffffffffff168360025460405161038a94939291906104b8565b60405180910390a150565b600160009054906101000a900473ffffffffffffffffffffffffffffffffffffffff1681565b6000815190506103ca81610734565b92915050565b6000815190506103df8161074b565b92915050565b6000602082840312156103f757600080fd5b6000610405848285016103bb565b91505092915050565b60006020828403121561042057600080fd5b600061042e848285016103d0565b91505092915050565b610440816105f4565b82525050565b61044f8161063c565b82525050565b60006104608261057e565b61046a8185610589565b935061047a818560208601610660565b61048381610723565b840191505092915050565b61049781610632565b82525050565b60006020820190506104b26000830184610437565b92915050565b60006080820190506104cd6000830187610437565b6104da6020830186610437565b6104e7604083018561048e565b6104f4606083018461048e565b95945050505050565b60006040820190506105126000830185610437565b61051f602083018461048e565b9392505050565b600060208201905061053b6000830184610446565b92915050565b6000602082019050818103600083015261055b8184610455565b905092915050565b6000602082019050610578600083018461048e565b92915050565b600081519050919050565b600082825260208201905092915050565b60006105a582610632565b91506105b083610632565b9250817fffffffffffffffffffffffffffffffffffffffffffffffffffffffffffffffff04831182151516156105e9576105e86106c5565b5b828202905092915050565b60006105ff82610612565b9050919050565b60008115159050919050565b600073ffffffffffffffffffffffffffffffffffffffff82169050919050565b6000819050919050565b60006106478261064e565b9050919050565b600061065982610612565b9050919050565b60005b8381101561067e578082015181840152602081019050610663565b8381111561068d576000848401525b50505050565b600060028204905060018216806106ab57607f821691505b602082108114156106bf576106be6106f4565b5b50919050565b7f4e487b7100000000000000000000000000000000000000000000000000000000600052601160045260246000fd5b7f4e487b7100000000000000000000000000000000000000000000000000000000600052602260045260246000fd5b6000601f19601f8301169050919050565b61073d81610606565b811461074857600080fd5b50565b61075481610632565b811461075f57600080fd5b5056fea26469706673582212209737ebb195d1b7358ca40a766a19ad4682c162fe8bbbe0d86c3ca0058641d84564736f6c63430008000033",
  "immutableReferences": {},
  "source": "pragma solidity ^0.8.0;\n\nimport \"@openzeppelin/contracts/token/ERC20/IERC20.sol\";\n\ncontract Swap {\n//     string public name = \"Swap contract\";\n//     uint256 public rate;\n//     IERC20 public token;\n\n//     event TokensPurchased(\n//     address account,\n//     address token,\n//     uint amount,\n//     uint rate\n//   );\n\n//     constructor (IERC20 _token , uint256 _rate) public {\n//         token = _token;\n//         rate = _rate;\n//     }\n\n//     function buyTokens() public payable {\n//         uint256 amount = msg.value * rate;\n\n//         require(token.balanceOf(address(this))>= amount);\n\n//         token.transferFrom(msg.sender, address(this), amount);\n\n//         emit TokensPurchased(msg.sender, address(token), amount, rate);\n//     }\n\n\n\n  string public name = \"Swap contract\";\n  IERC20 public token;\n  uint256 public rate;\n\n  event TokensPurchased(\n    address account,\n    address token,\n    uint amount,\n    uint rate\n  );\n\n  constructor(IERC20 _token , uint256 _rate) public {\n    token = _token;\n    rate = _rate;\n  }\n\n  function buyTokens() public payable {\n    uint tokenAmount = msg.value * rate;\n\n    require(token.balanceOf(address(this)) >= tokenAmount);\n\n    token.transfer(msg.sender, tokenAmount);\n\n    emit TokensPurchased(msg.sender, address(token), tokenAmount, rate);\n  }\n\n\n}",
  "sourcePath": "/home/ibrahim/GitHub/Sell/contracts/Swap.sol",
  "compiler": {
    "name": "solc",
    "version": "0.8.0+commit.c7dfd78e.Emscripten.clang"
  },
  "schemaVersion": "3.2.3",
  "updatedAt": "2022-02-09T13:11:42.936Z",
  "networkType": "ethereum",
  "devdoc": {
    "kind": "dev",
    "methods": {},
    "version": 1
  },
  "userdoc": {
    "kind": "user",
    "methods": {},
    "version": 1
  }
}